{
	"ExampleUint8.sol": {
		"ExampleUint": {
			"abi": [
				{
					"inputs": [],
					"name": "decrementInt",
					"outputs": [],
					"stateMutability": "nonpayable",
					"type": "function"
				},
				{
					"inputs": [],
					"name": "incrementInt",
					"outputs": [],
					"stateMutability": "nonpayable",
					"type": "function"
				},
				{
					"inputs": [],
					"name": "incrementUint8",
					"outputs": [],
					"stateMutability": "nonpayable",
					"type": "function"
				},
				{
					"inputs": [],
					"name": "myInt",
					"outputs": [
						{
							"internalType": "int256",
							"name": "",
							"type": "int256"
						}
					],
					"stateMutability": "view",
					"type": "function"
				},
				{
					"inputs": [],
					"name": "myUint",
					"outputs": [
						{
							"internalType": "uint256",
							"name": "",
							"type": "uint256"
						}
					],
					"stateMutability": "view",
					"type": "function"
				},
				{
					"inputs": [],
					"name": "myUint8",
					"outputs": [
						{
							"internalType": "uint8",
							"name": "",
							"type": "uint8"
						}
					],
					"stateMutability": "view",
					"type": "function"
				},
				{
					"inputs": [],
					"name": "myint8",
					"outputs": [
						{
							"internalType": "int8",
							"name": "",
							"type": "int8"
						}
					],
					"stateMutability": "view",
					"type": "function"
				},
				{
					"inputs": [
						{
							"internalType": "uint256",
							"name": "_myUint",
							"type": "uint256"
						}
					],
					"name": "setMyUint",
					"outputs": [],
					"stateMutability": "nonpayable",
					"type": "function"
				}
			],
			"devdoc": {
				"kind": "dev",
				"methods": {},
				"version": 1
			},
			"evm": {
				"assembly": "    /* \"ExampleUint8.sol\":62:734  contract ExampleUint {... */\n  mstore(0x40, 0x80)\n    /* \"ExampleUint8.sol\":160:164  2**4 */\n  0x10\n    /* \"ExampleUint8.sol\":137:164  uint8 public myUint8 = 2**4 */\n  0x01\n  exp(0x0100, 0x00)\n  dup2\n  sload\n  dup2\n  0xff\n  mul\n  not\n  and\n  swap1\n  dup4\n  0xff\n  and\n  mul\n  or\n  swap1\n  sstore\n  pop\n    /* \"ExampleUint8.sol\":242:245  -10 */\n  0xfffffffffffffffffffffffffffffffffffffffffffffffffffffffffffffff6\n    /* \"ExampleUint8.sol\":223:245  int public myInt = -10 */\n  0x02\n  sstore\n    /* \"ExampleUint8.sol\":62:734  contract ExampleUint {... */\n  callvalue\n  dup1\n  iszero\n  tag_1\n  jumpi\n  0x00\n  dup1\n  revert\ntag_1:\n  pop\n  dataSize(sub_0)\n  dup1\n  dataOffset(sub_0)\n  0x00\n  codecopy\n  0x00\n  return\nstop\n\nsub_0: assembly {\n        /* \"ExampleUint8.sol\":62:734  contract ExampleUint {... */\n      mstore(0x40, 0x80)\n      callvalue\n      dup1\n      iszero\n      tag_1\n      jumpi\n      0x00\n      dup1\n      revert\n    tag_1:\n      pop\n      jumpi(tag_2, lt(calldatasize, 0x04))\n      shr(0xe0, calldataload(0x00))\n      dup1\n      0x8d5833cb\n      gt\n      tag_11\n      jumpi\n      dup1\n      0x8d5833cb\n      eq\n      tag_7\n      jumpi\n      dup1\n      0xe2a4b2af\n      eq\n      tag_8\n      jumpi\n      dup1\n      0xe492fd84\n      eq\n      tag_9\n      jumpi\n      dup1\n      0xf102a71d\n      eq\n      tag_10\n      jumpi\n      jump(tag_2)\n    tag_11:\n      dup1\n      0x06540f7e\n      eq\n      tag_3\n      jumpi\n      dup1\n      0x2cb777a6\n      eq\n      tag_4\n      jumpi\n      dup1\n      0x63e05732\n      eq\n      tag_5\n      jumpi\n      dup1\n      0x84ea3606\n      eq\n      tag_6\n      jumpi\n    tag_2:\n      0x00\n      dup1\n      revert\n        /* \"ExampleUint8.sol\":92:113  uint256 public myUint */\n    tag_3:\n      tag_12\n      tag_13\n      jump\t// in\n    tag_12:\n      mload(0x40)\n      tag_14\n      swap2\n      swap1\n      tag_15\n      jump\t// in\n    tag_14:\n      mload(0x40)\n      dup1\n      swap2\n      sub\n      swap1\n      return\n        /* \"ExampleUint8.sol\":223:245  int public myInt = -10 */\n    tag_4:\n      tag_16\n      tag_17\n      jump\t// in\n    tag_16:\n      mload(0x40)\n      tag_18\n      swap2\n      swap1\n      tag_19\n      jump\t// in\n    tag_18:\n      mload(0x40)\n      dup1\n      swap2\n      sub\n      swap1\n      return\n        /* \"ExampleUint8.sol\":183:201  int8 public myint8 */\n    tag_5:\n      tag_20\n      tag_21\n      jump\t// in\n    tag_20:\n      mload(0x40)\n      tag_22\n      swap2\n      swap1\n      tag_23\n      jump\t// in\n    tag_22:\n      mload(0x40)\n      dup1\n      swap2\n      sub\n      swap1\n      return\n        /* \"ExampleUint8.sol\":366:427  function incrementUint8() public {... */\n    tag_6:\n      tag_24\n      tag_25\n      jump\t// in\n    tag_24:\n      stop\n        /* \"ExampleUint8.sol\":500:557  function decrementInt() public {... */\n    tag_7:\n      tag_26\n      tag_27\n      jump\t// in\n    tag_26:\n      stop\n        /* \"ExampleUint8.sol\":137:164  uint8 public myUint8 = 2**4 */\n    tag_8:\n      tag_28\n      tag_29\n      jump\t// in\n    tag_28:\n      mload(0x40)\n      tag_30\n      swap2\n      swap1\n      tag_31\n      jump\t// in\n    tag_30:\n      mload(0x40)\n      dup1\n      swap2\n      sub\n      swap1\n      return\n        /* \"ExampleUint8.sol\":283:358  function setMyUint(uint _myUint) public {... */\n    tag_9:\n      tag_32\n      0x04\n      dup1\n      calldatasize\n      sub\n      dup2\n      add\n      swap1\n      tag_33\n      swap2\n      swap1\n      tag_34\n      jump\t// in\n    tag_33:\n      tag_35\n      jump\t// in\n    tag_32:\n      stop\n        /* \"ExampleUint8.sol\":435:492  function incrementInt() public {... */\n    tag_10:\n      tag_36\n      tag_37\n      jump\t// in\n    tag_36:\n      stop\n        /* \"ExampleUint8.sol\":92:113  uint256 public myUint */\n    tag_13:\n      sload(0x00)\n      dup2\n      jump\t// out\n        /* \"ExampleUint8.sol\":223:245  int public myInt = -10 */\n    tag_17:\n      sload(0x02)\n      dup2\n      jump\t// out\n        /* \"ExampleUint8.sol\":183:201  int8 public myint8 */\n    tag_21:\n      0x01\n      dup1\n      sload\n      swap1\n      0x0100\n      exp\n      swap1\n      div\n      0x00\n      signextend\n      dup2\n      jump\t// out\n        /* \"ExampleUint8.sol\":366:427  function incrementUint8() public {... */\n    tag_25:\n        /* \"ExampleUint8.sol\":410:417  myUint8 */\n      0x01\n      0x00\n        /* \"ExampleUint8.sol\":410:419  myUint8++ */\n      dup2\n      dup2\n      swap1\n      sload\n      swap1\n      0x0100\n      exp\n      swap1\n      div\n      0xff\n      and\n      dup1\n      swap3\n      swap2\n      swap1\n      tag_39\n      swap1\n      tag_40\n      jump\t// in\n    tag_39:\n      swap2\n      swap1\n      0x0100\n      exp\n      dup2\n      sload\n      dup2\n      0xff\n      mul\n      not\n      and\n      swap1\n      dup4\n      0xff\n      and\n      mul\n      or\n      swap1\n      sstore\n      pop\n      pop\n        /* \"ExampleUint8.sol\":366:427  function incrementUint8() public {... */\n      jump\t// out\n        /* \"ExampleUint8.sol\":500:557  function decrementInt() public {... */\n    tag_27:\n        /* \"ExampleUint8.sol\":542:547  myInt */\n      0x02\n      0x00\n        /* \"ExampleUint8.sol\":542:549  myInt-- */\n      dup2\n      sload\n      dup1\n      swap3\n      swap2\n      swap1\n      tag_42\n      swap1\n      tag_43\n      jump\t// in\n    tag_42:\n      swap2\n      swap1\n      pop\n      sstore\n      pop\n        /* \"ExampleUint8.sol\":500:557  function decrementInt() public {... */\n      jump\t// out\n        /* \"ExampleUint8.sol\":137:164  uint8 public myUint8 = 2**4 */\n    tag_29:\n      0x01\n      0x00\n      swap1\n      sload\n      swap1\n      0x0100\n      exp\n      swap1\n      div\n      0xff\n      and\n      dup2\n      jump\t// out\n        /* \"ExampleUint8.sol\":283:358  function setMyUint(uint _myUint) public {... */\n    tag_35:\n        /* \"ExampleUint8.sol\":343:350  _myUint */\n      dup1\n        /* \"ExampleUint8.sol\":334:340  myUint */\n      0x00\n        /* \"ExampleUint8.sol\":334:350  myUint = _myUint */\n      dup2\n      swap1\n      sstore\n      pop\n        /* \"ExampleUint8.sol\":283:358  function setMyUint(uint _myUint) public {... */\n      pop\n      jump\t// out\n        /* \"ExampleUint8.sol\":435:492  function incrementInt() public {... */\n    tag_37:\n        /* \"ExampleUint8.sol\":477:482  myInt */\n      0x02\n      0x00\n        /* \"ExampleUint8.sol\":477:484  myInt++ */\n      dup2\n      sload\n      dup1\n      swap3\n      swap2\n      swap1\n      tag_46\n      swap1\n      tag_47\n      jump\t// in\n    tag_46:\n      swap2\n      swap1\n      pop\n      sstore\n      pop\n        /* \"ExampleUint8.sol\":435:492  function incrementInt() public {... */\n      jump\t// out\n        /* \"#utility.yul\":7:84   */\n    tag_48:\n        /* \"#utility.yul\":44:51   */\n      0x00\n        /* \"#utility.yul\":73:78   */\n      dup2\n        /* \"#utility.yul\":62:78   */\n      swap1\n      pop\n        /* \"#utility.yul\":7:84   */\n      swap2\n      swap1\n      pop\n      jump\t// out\n        /* \"#utility.yul\":90:208   */\n    tag_49:\n        /* \"#utility.yul\":177:201   */\n      tag_65\n        /* \"#utility.yul\":195:200   */\n      dup2\n        /* \"#utility.yul\":177:201   */\n      tag_48\n      jump\t// in\n    tag_65:\n        /* \"#utility.yul\":172:175   */\n      dup3\n        /* \"#utility.yul\":165:202   */\n      mstore\n        /* \"#utility.yul\":90:208   */\n      pop\n      pop\n      jump\t// out\n        /* \"#utility.yul\":214:436   */\n    tag_15:\n        /* \"#utility.yul\":307:311   */\n      0x00\n        /* \"#utility.yul\":345:347   */\n      0x20\n        /* \"#utility.yul\":334:343   */\n      dup3\n        /* \"#utility.yul\":330:348   */\n      add\n        /* \"#utility.yul\":322:348   */\n      swap1\n      pop\n        /* \"#utility.yul\":358:429   */\n      tag_67\n        /* \"#utility.yul\":426:427   */\n      0x00\n        /* \"#utility.yul\":415:424   */\n      dup4\n        /* \"#utility.yul\":411:428   */\n      add\n        /* \"#utility.yul\":402:408   */\n      dup5\n        /* \"#utility.yul\":358:429   */\n      tag_49\n      jump\t// in\n    tag_67:\n        /* \"#utility.yul\":214:436   */\n      swap3\n      swap2\n      pop\n      pop\n      jump\t// out\n        /* \"#utility.yul\":442:518   */\n    tag_50:\n        /* \"#utility.yul\":478:485   */\n      0x00\n        /* \"#utility.yul\":507:512   */\n      dup2\n        /* \"#utility.yul\":496:512   */\n      swap1\n      pop\n        /* \"#utility.yul\":442:518   */\n      swap2\n      swap1\n      pop\n      jump\t// out\n        /* \"#utility.yul\":524:639   */\n    tag_51:\n        /* \"#utility.yul\":609:632   */\n      tag_70\n        /* \"#utility.yul\":626:631   */\n      dup2\n        /* \"#utility.yul\":609:632   */\n      tag_50\n      jump\t// in\n    tag_70:\n        /* \"#utility.yul\":604:607   */\n      dup3\n        /* \"#utility.yul\":597:633   */\n      mstore\n        /* \"#utility.yul\":524:639   */\n      pop\n      pop\n      jump\t// out\n        /* \"#utility.yul\":645:863   */\n    tag_19:\n        /* \"#utility.yul\":736:740   */\n      0x00\n        /* \"#utility.yul\":774:776   */\n      0x20\n        /* \"#utility.yul\":763:772   */\n      dup3\n        /* \"#utility.yul\":759:777   */\n      add\n        /* \"#utility.yul\":751:777   */\n      swap1\n      pop\n        /* \"#utility.yul\":787:856   */\n      tag_72\n        /* \"#utility.yul\":853:854   */\n      0x00\n        /* \"#utility.yul\":842:851   */\n      dup4\n        /* \"#utility.yul\":838:855   */\n      add\n        /* \"#utility.yul\":829:835   */\n      dup5\n        /* \"#utility.yul\":787:856   */\n      tag_51\n      jump\t// in\n    tag_72:\n        /* \"#utility.yul\":645:863   */\n      swap3\n      swap2\n      pop\n      pop\n      jump\t// out\n        /* \"#utility.yul\":869:958   */\n    tag_52:\n        /* \"#utility.yul\":903:910   */\n      0x00\n        /* \"#utility.yul\":946:951   */\n      dup2\n        /* \"#utility.yul\":943:944   */\n      0x00\n        /* \"#utility.yul\":932:952   */\n      signextend\n        /* \"#utility.yul\":921:952   */\n      swap1\n      pop\n        /* \"#utility.yul\":869:958   */\n      swap2\n      swap1\n      pop\n      jump\t// out\n        /* \"#utility.yul\":964:1073   */\n    tag_53:\n        /* \"#utility.yul\":1045:1066   */\n      tag_75\n        /* \"#utility.yul\":1060:1065   */\n      dup2\n        /* \"#utility.yul\":1045:1066   */\n      tag_52\n      jump\t// in\n    tag_75:\n        /* \"#utility.yul\":1040:1043   */\n      dup3\n        /* \"#utility.yul\":1033:1067   */\n      mstore\n        /* \"#utility.yul\":964:1073   */\n      pop\n      pop\n      jump\t// out\n        /* \"#utility.yul\":1079:1289   */\n    tag_23:\n        /* \"#utility.yul\":1166:1170   */\n      0x00\n        /* \"#utility.yul\":1204:1206   */\n      0x20\n        /* \"#utility.yul\":1193:1202   */\n      dup3\n        /* \"#utility.yul\":1189:1207   */\n      add\n        /* \"#utility.yul\":1181:1207   */\n      swap1\n      pop\n        /* \"#utility.yul\":1217:1282   */\n      tag_77\n        /* \"#utility.yul\":1279:1280   */\n      0x00\n        /* \"#utility.yul\":1268:1277   */\n      dup4\n        /* \"#utility.yul\":1264:1281   */\n      add\n        /* \"#utility.yul\":1255:1261   */\n      dup5\n        /* \"#utility.yul\":1217:1282   */\n      tag_53\n      jump\t// in\n    tag_77:\n        /* \"#utility.yul\":1079:1289   */\n      swap3\n      swap2\n      pop\n      pop\n      jump\t// out\n        /* \"#utility.yul\":1295:1381   */\n    tag_54:\n        /* \"#utility.yul\":1330:1337   */\n      0x00\n        /* \"#utility.yul\":1370:1374   */\n      0xff\n        /* \"#utility.yul\":1363:1368   */\n      dup3\n        /* \"#utility.yul\":1359:1375   */\n      and\n        /* \"#utility.yul\":1348:1375   */\n      swap1\n      pop\n        /* \"#utility.yul\":1295:1381   */\n      swap2\n      swap1\n      pop\n      jump\t// out\n        /* \"#utility.yul\":1387:1499   */\n    tag_55:\n        /* \"#utility.yul\":1470:1492   */\n      tag_80\n        /* \"#utility.yul\":1486:1491   */\n      dup2\n        /* \"#utility.yul\":1470:1492   */\n      tag_54\n      jump\t// in\n    tag_80:\n        /* \"#utility.yul\":1465:1468   */\n      dup3\n        /* \"#utility.yul\":1458:1493   */\n      mstore\n        /* \"#utility.yul\":1387:1499   */\n      pop\n      pop\n      jump\t// out\n        /* \"#utility.yul\":1505:1719   */\n    tag_31:\n        /* \"#utility.yul\":1594:1598   */\n      0x00\n        /* \"#utility.yul\":1632:1634   */\n      0x20\n        /* \"#utility.yul\":1621:1630   */\n      dup3\n        /* \"#utility.yul\":1617:1635   */\n      add\n        /* \"#utility.yul\":1609:1635   */\n      swap1\n      pop\n        /* \"#utility.yul\":1645:1712   */\n      tag_82\n        /* \"#utility.yul\":1709:1710   */\n      0x00\n        /* \"#utility.yul\":1698:1707   */\n      dup4\n        /* \"#utility.yul\":1694:1711   */\n      add\n        /* \"#utility.yul\":1685:1691   */\n      dup5\n        /* \"#utility.yul\":1645:1712   */\n      tag_55\n      jump\t// in\n    tag_82:\n        /* \"#utility.yul\":1505:1719   */\n      swap3\n      swap2\n      pop\n      pop\n      jump\t// out\n        /* \"#utility.yul\":1806:1923   */\n    tag_57:\n        /* \"#utility.yul\":1915:1916   */\n      0x00\n        /* \"#utility.yul\":1912:1913   */\n      dup1\n        /* \"#utility.yul\":1905:1917   */\n      revert\n        /* \"#utility.yul\":2052:2174   */\n    tag_59:\n        /* \"#utility.yul\":2125:2149   */\n      tag_87\n        /* \"#utility.yul\":2143:2148   */\n      dup2\n        /* \"#utility.yul\":2125:2149   */\n      tag_48\n      jump\t// in\n    tag_87:\n        /* \"#utility.yul\":2118:2123   */\n      dup2\n        /* \"#utility.yul\":2115:2150   */\n      eq\n        /* \"#utility.yul\":2105:2168   */\n      tag_88\n      jumpi\n        /* \"#utility.yul\":2164:2165   */\n      0x00\n        /* \"#utility.yul\":2161:2162   */\n      dup1\n        /* \"#utility.yul\":2154:2166   */\n      revert\n        /* \"#utility.yul\":2105:2168   */\n    tag_88:\n        /* \"#utility.yul\":2052:2174   */\n      pop\n      jump\t// out\n        /* \"#utility.yul\":2180:2319   */\n    tag_60:\n        /* \"#utility.yul\":2226:2231   */\n      0x00\n        /* \"#utility.yul\":2264:2270   */\n      dup2\n        /* \"#utility.yul\":2251:2271   */\n      calldataload\n        /* \"#utility.yul\":2242:2271   */\n      swap1\n      pop\n        /* \"#utility.yul\":2280:2313   */\n      tag_90\n        /* \"#utility.yul\":2307:2312   */\n      dup2\n        /* \"#utility.yul\":2280:2313   */\n      tag_59\n      jump\t// in\n    tag_90:\n        /* \"#utility.yul\":2180:2319   */\n      swap3\n      swap2\n      pop\n      pop\n      jump\t// out\n        /* \"#utility.yul\":2325:2654   */\n    tag_34:\n        /* \"#utility.yul\":2384:2390   */\n      0x00\n        /* \"#utility.yul\":2433:2435   */\n      0x20\n        /* \"#utility.yul\":2421:2430   */\n      dup3\n        /* \"#utility.yul\":2412:2419   */\n      dup5\n        /* \"#utility.yul\":2408:2431   */\n      sub\n        /* \"#utility.yul\":2404:2436   */\n      slt\n        /* \"#utility.yul\":2401:2520   */\n      iszero\n      tag_92\n      jumpi\n        /* \"#utility.yul\":2439:2518   */\n      tag_93\n      tag_57\n      jump\t// in\n    tag_93:\n        /* \"#utility.yul\":2401:2520   */\n    tag_92:\n        /* \"#utility.yul\":2559:2560   */\n      0x00\n        /* \"#utility.yul\":2584:2637   */\n      tag_94\n        /* \"#utility.yul\":2629:2636   */\n      dup5\n        /* \"#utility.yul\":2620:2626   */\n      dup3\n        /* \"#utility.yul\":2609:2618   */\n      dup6\n        /* \"#utility.yul\":2605:2627   */\n      add\n        /* \"#utility.yul\":2584:2637   */\n      tag_60\n      jump\t// in\n    tag_94:\n        /* \"#utility.yul\":2574:2637   */\n      swap2\n      pop\n        /* \"#utility.yul\":2530:2647   */\n      pop\n        /* \"#utility.yul\":2325:2654   */\n      swap3\n      swap2\n      pop\n      pop\n      jump\t// out\n        /* \"#utility.yul\":2660:2840   */\n    tag_61:\n        /* \"#utility.yul\":2708:2785   */\n      0x4e487b7100000000000000000000000000000000000000000000000000000000\n        /* \"#utility.yul\":2705:2706   */\n      0x00\n        /* \"#utility.yul\":2698:2786   */\n      mstore\n        /* \"#utility.yul\":2805:2809   */\n      0x11\n        /* \"#utility.yul\":2802:2803   */\n      0x04\n        /* \"#utility.yul\":2795:2810   */\n      mstore\n        /* \"#utility.yul\":2829:2833   */\n      0x24\n        /* \"#utility.yul\":2826:2827   */\n      0x00\n        /* \"#utility.yul\":2819:2834   */\n      revert\n        /* \"#utility.yul\":2846:3013   */\n    tag_40:\n        /* \"#utility.yul\":2883:2886   */\n      0x00\n        /* \"#utility.yul\":2906:2928   */\n      tag_97\n        /* \"#utility.yul\":2922:2927   */\n      dup3\n        /* \"#utility.yul\":2906:2928   */\n      tag_54\n      jump\t// in\n    tag_97:\n        /* \"#utility.yul\":2897:2928   */\n      swap2\n      pop\n        /* \"#utility.yul\":2950:2954   */\n      0xff\n        /* \"#utility.yul\":2943:2948   */\n      dup3\n        /* \"#utility.yul\":2940:2955   */\n      sub\n        /* \"#utility.yul\":2937:2978   */\n      tag_98\n      jumpi\n        /* \"#utility.yul\":2958:2976   */\n      tag_99\n      tag_61\n      jump\t// in\n    tag_99:\n        /* \"#utility.yul\":2937:2978   */\n    tag_98:\n        /* \"#utility.yul\":3005:3006   */\n      0x01\n        /* \"#utility.yul\":2998:3003   */\n      dup3\n        /* \"#utility.yul\":2994:3007   */\n      add\n        /* \"#utility.yul\":2987:3007   */\n      swap1\n      pop\n        /* \"#utility.yul\":2846:3013   */\n      swap2\n      swap1\n      pop\n      jump\t// out\n        /* \"#utility.yul\":3019:3250   */\n    tag_43:\n        /* \"#utility.yul\":3057:3060   */\n      0x00\n        /* \"#utility.yul\":3080:3103   */\n      tag_101\n        /* \"#utility.yul\":3097:3102   */\n      dup3\n        /* \"#utility.yul\":3080:3103   */\n      tag_50\n      jump\t// in\n    tag_101:\n        /* \"#utility.yul\":3071:3103   */\n      swap2\n      pop\n        /* \"#utility.yul\":3125:3191   */\n      0x8000000000000000000000000000000000000000000000000000000000000000\n        /* \"#utility.yul\":3118:3123   */\n      dup3\n        /* \"#utility.yul\":3115:3192   */\n      sub\n        /* \"#utility.yul\":3112:3215   */\n      tag_102\n      jumpi\n        /* \"#utility.yul\":3195:3213   */\n      tag_103\n      tag_61\n      jump\t// in\n    tag_103:\n        /* \"#utility.yul\":3112:3215   */\n    tag_102:\n        /* \"#utility.yul\":3242:3243   */\n      0x01\n        /* \"#utility.yul\":3235:3240   */\n      dup3\n        /* \"#utility.yul\":3231:3244   */\n      sub\n        /* \"#utility.yul\":3224:3244   */\n      swap1\n      pop\n        /* \"#utility.yul\":3019:3250   */\n      swap2\n      swap1\n      pop\n      jump\t// out\n        /* \"#utility.yul\":3256:3487   */\n    tag_47:\n        /* \"#utility.yul\":3294:3297   */\n      0x00\n        /* \"#utility.yul\":3317:3340   */\n      tag_105\n        /* \"#utility.yul\":3334:3339   */\n      dup3\n        /* \"#utility.yul\":3317:3340   */\n      tag_50\n      jump\t// in\n    tag_105:\n        /* \"#utility.yul\":3308:3340   */\n      swap2\n      pop\n        /* \"#utility.yul\":3362:3428   */\n      0x7fffffffffffffffffffffffffffffffffffffffffffffffffffffffffffffff\n        /* \"#utility.yul\":3355:3360   */\n      dup3\n        /* \"#utility.yul\":3352:3429   */\n      sub\n        /* \"#utility.yul\":3349:3452   */\n      tag_106\n      jumpi\n        /* \"#utility.yul\":3432:3450   */\n      tag_107\n      tag_61\n      jump\t// in\n    tag_107:\n        /* \"#utility.yul\":3349:3452   */\n    tag_106:\n        /* \"#utility.yul\":3479:3480   */\n      0x01\n        /* \"#utility.yul\":3472:3477   */\n      dup3\n        /* \"#utility.yul\":3468:3481   */\n      add\n        /* \"#utility.yul\":3461:3481   */\n      swap1\n      pop\n        /* \"#utility.yul\":3256:3487   */\n      swap2\n      swap1\n      pop\n      jump\t// out\n\n    auxdata: 0xa264697066735822122050cbc1e6579f5711591251a6d4866c40d9624bc468cae1b1440e2dd67f8b9ebe64736f6c63430008120033\n}\n",
				"bytecode": {
					"linkReferences": {},
					"object": "60806040526010600160006101000a81548160ff021916908360ff1602179055507ffffffffffffffffffffffffffffffffffffffffffffffffffffffffffffffff660025534801561005057600080fd5b50610439806100606000396000f3fe608060405234801561001057600080fd5b50600436106100885760003560e01c80638d5833cb1161005b5780638d5833cb146100f1578063e2a4b2af146100fb578063e492fd8414610119578063f102a71d1461013557610088565b806306540f7e1461008d5780632cb777a6146100ab57806363e05732146100c957806384ea3606146100e7575b600080fd5b61009561013f565b6040516100a29190610200565b60405180910390f35b6100b3610145565b6040516100c09190610234565b60405180910390f35b6100d161014b565b6040516100de919061026b565b60405180910390f35b6100ef61015c565b005b6100f9610196565b005b6101036101b0565b60405161011091906102a2565b60405180910390f35b610133600480360381019061012e91906102ee565b6101c3565b005b61013d6101cd565b005b60005481565b60025481565b60018054906101000a900460000b81565b6001600081819054906101000a900460ff168092919061017b9061034a565b91906101000a81548160ff021916908360ff16021790555050565b600260008154809291906101a990610373565b9190505550565b600160009054906101000a900460ff1681565b8060008190555050565b600260008154809291906101e0906103bb565b9190505550565b6000819050919050565b6101fa816101e7565b82525050565b600060208201905061021560008301846101f1565b92915050565b6000819050919050565b61022e8161021b565b82525050565b60006020820190506102496000830184610225565b92915050565b60008160000b9050919050565b6102658161024f565b82525050565b6000602082019050610280600083018461025c565b92915050565b600060ff82169050919050565b61029c81610286565b82525050565b60006020820190506102b76000830184610293565b92915050565b600080fd5b6102cb816101e7565b81146102d657600080fd5b50565b6000813590506102e8816102c2565b92915050565b600060208284031215610304576103036102bd565b5b6000610312848285016102d9565b91505092915050565b7f4e487b7100000000000000000000000000000000000000000000000000000000600052601160045260246000fd5b600061035582610286565b915060ff82036103685761036761031b565b5b600182019050919050565b600061037e8261021b565b91507f800000000000000000000000000000000000000000000000000000000000000082036103b0576103af61031b565b5b600182039050919050565b60006103c68261021b565b91507f7fffffffffffffffffffffffffffffffffffffffffffffffffffffffffffffff82036103f8576103f761031b565b5b60018201905091905056fea264697066735822122050cbc1e6579f5711591251a6d4866c40d9624bc468cae1b1440e2dd67f8b9ebe64736f6c63430008120033",
					"opcodes": "PUSH1 0x80 PUSH1 0x40 MSTORE PUSH1 0x10 PUSH1 0x1 PUSH1 0x0 PUSH2 0x100 EXP DUP2 SLOAD DUP2 PUSH1 0xFF MUL NOT AND SWAP1 DUP4 PUSH1 0xFF AND MUL OR SWAP1 SSTORE POP PUSH32 0xFFFFFFFFFFFFFFFFFFFFFFFFFFFFFFFFFFFFFFFFFFFFFFFFFFFFFFFFFFFFFFF6 PUSH1 0x2 SSTORE CALLVALUE DUP1 ISZERO PUSH2 0x50 JUMPI PUSH1 0x0 DUP1 REVERT JUMPDEST POP PUSH2 0x439 DUP1 PUSH2 0x60 PUSH1 0x0 CODECOPY PUSH1 0x0 RETURN INVALID PUSH1 0x80 PUSH1 0x40 MSTORE CALLVALUE DUP1 ISZERO PUSH2 0x10 JUMPI PUSH1 0x0 DUP1 REVERT JUMPDEST POP PUSH1 0x4 CALLDATASIZE LT PUSH2 0x88 JUMPI PUSH1 0x0 CALLDATALOAD PUSH1 0xE0 SHR DUP1 PUSH4 0x8D5833CB GT PUSH2 0x5B JUMPI DUP1 PUSH4 0x8D5833CB EQ PUSH2 0xF1 JUMPI DUP1 PUSH4 0xE2A4B2AF EQ PUSH2 0xFB JUMPI DUP1 PUSH4 0xE492FD84 EQ PUSH2 0x119 JUMPI DUP1 PUSH4 0xF102A71D EQ PUSH2 0x135 JUMPI PUSH2 0x88 JUMP JUMPDEST DUP1 PUSH4 0x6540F7E EQ PUSH2 0x8D JUMPI DUP1 PUSH4 0x2CB777A6 EQ PUSH2 0xAB JUMPI DUP1 PUSH4 0x63E05732 EQ PUSH2 0xC9 JUMPI DUP1 PUSH4 0x84EA3606 EQ PUSH2 0xE7 JUMPI JUMPDEST PUSH1 0x0 DUP1 REVERT JUMPDEST PUSH2 0x95 PUSH2 0x13F JUMP JUMPDEST PUSH1 0x40 MLOAD PUSH2 0xA2 SWAP2 SWAP1 PUSH2 0x200 JUMP JUMPDEST PUSH1 0x40 MLOAD DUP1 SWAP2 SUB SWAP1 RETURN JUMPDEST PUSH2 0xB3 PUSH2 0x145 JUMP JUMPDEST PUSH1 0x40 MLOAD PUSH2 0xC0 SWAP2 SWAP1 PUSH2 0x234 JUMP JUMPDEST PUSH1 0x40 MLOAD DUP1 SWAP2 SUB SWAP1 RETURN JUMPDEST PUSH2 0xD1 PUSH2 0x14B JUMP JUMPDEST PUSH1 0x40 MLOAD PUSH2 0xDE SWAP2 SWAP1 PUSH2 0x26B JUMP JUMPDEST PUSH1 0x40 MLOAD DUP1 SWAP2 SUB SWAP1 RETURN JUMPDEST PUSH2 0xEF PUSH2 0x15C JUMP JUMPDEST STOP JUMPDEST PUSH2 0xF9 PUSH2 0x196 JUMP JUMPDEST STOP JUMPDEST PUSH2 0x103 PUSH2 0x1B0 JUMP JUMPDEST PUSH1 0x40 MLOAD PUSH2 0x110 SWAP2 SWAP1 PUSH2 0x2A2 JUMP JUMPDEST PUSH1 0x40 MLOAD DUP1 SWAP2 SUB SWAP1 RETURN JUMPDEST PUSH2 0x133 PUSH1 0x4 DUP1 CALLDATASIZE SUB DUP2 ADD SWAP1 PUSH2 0x12E SWAP2 SWAP1 PUSH2 0x2EE JUMP JUMPDEST PUSH2 0x1C3 JUMP JUMPDEST STOP JUMPDEST PUSH2 0x13D PUSH2 0x1CD JUMP JUMPDEST STOP JUMPDEST PUSH1 0x0 SLOAD DUP2 JUMP JUMPDEST PUSH1 0x2 SLOAD DUP2 JUMP JUMPDEST PUSH1 0x1 DUP1 SLOAD SWAP1 PUSH2 0x100 EXP SWAP1 DIV PUSH1 0x0 SIGNEXTEND DUP2 JUMP JUMPDEST PUSH1 0x1 PUSH1 0x0 DUP2 DUP2 SWAP1 SLOAD SWAP1 PUSH2 0x100 EXP SWAP1 DIV PUSH1 0xFF AND DUP1 SWAP3 SWAP2 SWAP1 PUSH2 0x17B SWAP1 PUSH2 0x34A JUMP JUMPDEST SWAP2 SWAP1 PUSH2 0x100 EXP DUP2 SLOAD DUP2 PUSH1 0xFF MUL NOT AND SWAP1 DUP4 PUSH1 0xFF AND MUL OR SWAP1 SSTORE POP POP JUMP JUMPDEST PUSH1 0x2 PUSH1 0x0 DUP2 SLOAD DUP1 SWAP3 SWAP2 SWAP1 PUSH2 0x1A9 SWAP1 PUSH2 0x373 JUMP JUMPDEST SWAP2 SWAP1 POP SSTORE POP JUMP JUMPDEST PUSH1 0x1 PUSH1 0x0 SWAP1 SLOAD SWAP1 PUSH2 0x100 EXP SWAP1 DIV PUSH1 0xFF AND DUP2 JUMP JUMPDEST DUP1 PUSH1 0x0 DUP2 SWAP1 SSTORE POP POP JUMP JUMPDEST PUSH1 0x2 PUSH1 0x0 DUP2 SLOAD DUP1 SWAP3 SWAP2 SWAP1 PUSH2 0x1E0 SWAP1 PUSH2 0x3BB JUMP JUMPDEST SWAP2 SWAP1 POP SSTORE POP JUMP JUMPDEST PUSH1 0x0 DUP2 SWAP1 POP SWAP2 SWAP1 POP JUMP JUMPDEST PUSH2 0x1FA DUP2 PUSH2 0x1E7 JUMP JUMPDEST DUP3 MSTORE POP POP JUMP JUMPDEST PUSH1 0x0 PUSH1 0x20 DUP3 ADD SWAP1 POP PUSH2 0x215 PUSH1 0x0 DUP4 ADD DUP5 PUSH2 0x1F1 JUMP JUMPDEST SWAP3 SWAP2 POP POP JUMP JUMPDEST PUSH1 0x0 DUP2 SWAP1 POP SWAP2 SWAP1 POP JUMP JUMPDEST PUSH2 0x22E DUP2 PUSH2 0x21B JUMP JUMPDEST DUP3 MSTORE POP POP JUMP JUMPDEST PUSH1 0x0 PUSH1 0x20 DUP3 ADD SWAP1 POP PUSH2 0x249 PUSH1 0x0 DUP4 ADD DUP5 PUSH2 0x225 JUMP JUMPDEST SWAP3 SWAP2 POP POP JUMP JUMPDEST PUSH1 0x0 DUP2 PUSH1 0x0 SIGNEXTEND SWAP1 POP SWAP2 SWAP1 POP JUMP JUMPDEST PUSH2 0x265 DUP2 PUSH2 0x24F JUMP JUMPDEST DUP3 MSTORE POP POP JUMP JUMPDEST PUSH1 0x0 PUSH1 0x20 DUP3 ADD SWAP1 POP PUSH2 0x280 PUSH1 0x0 DUP4 ADD DUP5 PUSH2 0x25C JUMP JUMPDEST SWAP3 SWAP2 POP POP JUMP JUMPDEST PUSH1 0x0 PUSH1 0xFF DUP3 AND SWAP1 POP SWAP2 SWAP1 POP JUMP JUMPDEST PUSH2 0x29C DUP2 PUSH2 0x286 JUMP JUMPDEST DUP3 MSTORE POP POP JUMP JUMPDEST PUSH1 0x0 PUSH1 0x20 DUP3 ADD SWAP1 POP PUSH2 0x2B7 PUSH1 0x0 DUP4 ADD DUP5 PUSH2 0x293 JUMP JUMPDEST SWAP3 SWAP2 POP POP JUMP JUMPDEST PUSH1 0x0 DUP1 REVERT JUMPDEST PUSH2 0x2CB DUP2 PUSH2 0x1E7 JUMP JUMPDEST DUP2 EQ PUSH2 0x2D6 JUMPI PUSH1 0x0 DUP1 REVERT JUMPDEST POP JUMP JUMPDEST PUSH1 0x0 DUP2 CALLDATALOAD SWAP1 POP PUSH2 0x2E8 DUP2 PUSH2 0x2C2 JUMP JUMPDEST SWAP3 SWAP2 POP POP JUMP JUMPDEST PUSH1 0x0 PUSH1 0x20 DUP3 DUP5 SUB SLT ISZERO PUSH2 0x304 JUMPI PUSH2 0x303 PUSH2 0x2BD JUMP JUMPDEST JUMPDEST PUSH1 0x0 PUSH2 0x312 DUP5 DUP3 DUP6 ADD PUSH2 0x2D9 JUMP JUMPDEST SWAP2 POP POP SWAP3 SWAP2 POP POP JUMP JUMPDEST PUSH32 0x4E487B7100000000000000000000000000000000000000000000000000000000 PUSH1 0x0 MSTORE PUSH1 0x11 PUSH1 0x4 MSTORE PUSH1 0x24 PUSH1 0x0 REVERT JUMPDEST PUSH1 0x0 PUSH2 0x355 DUP3 PUSH2 0x286 JUMP JUMPDEST SWAP2 POP PUSH1 0xFF DUP3 SUB PUSH2 0x368 JUMPI PUSH2 0x367 PUSH2 0x31B JUMP JUMPDEST JUMPDEST PUSH1 0x1 DUP3 ADD SWAP1 POP SWAP2 SWAP1 POP JUMP JUMPDEST PUSH1 0x0 PUSH2 0x37E DUP3 PUSH2 0x21B JUMP JUMPDEST SWAP2 POP PUSH32 0x8000000000000000000000000000000000000000000000000000000000000000 DUP3 SUB PUSH2 0x3B0 JUMPI PUSH2 0x3AF PUSH2 0x31B JUMP JUMPDEST JUMPDEST PUSH1 0x1 DUP3 SUB SWAP1 POP SWAP2 SWAP1 POP JUMP JUMPDEST PUSH1 0x0 PUSH2 0x3C6 DUP3 PUSH2 0x21B JUMP JUMPDEST SWAP2 POP PUSH32 0x7FFFFFFFFFFFFFFFFFFFFFFFFFFFFFFFFFFFFFFFFFFFFFFFFFFFFFFFFFFFFFFF DUP3 SUB PUSH2 0x3F8 JUMPI PUSH2 0x3F7 PUSH2 0x31B JUMP JUMPDEST JUMPDEST PUSH1 0x1 DUP3 ADD SWAP1 POP SWAP2 SWAP1 POP JUMP INVALID LOG2 PUSH5 0x6970667358 0x22 SLT KECCAK256 POP 0xCB 0xC1 0xE6 JUMPI SWAP16 JUMPI GT MSIZE SLT MLOAD 0xA6 0xD4 DUP7 PUSH13 0x40D9624BC468CAE1B1440E2DD6 PUSH32 0x8B9EBE64736F6C63430008120033000000000000000000000000000000000000 "
				},
				"gasEstimates": {
					"creation": {
						"codeDepositCost": "216200",
						"executionCost": "46630",
						"totalCost": "262830"
					},
					"external": {
						"decrementInt()": "24501",
						"incrementInt()": "24567",
						"incrementUint8()": "26766",
						"myInt()": "2452",
						"myUint()": "2430",
						"myUint8()": "2493",
						"myint8()": "2567",
						"setMyUint(uint256)": "22564"
					}
				},
				"methodIdentifiers": {
					"decrementInt()": "8d5833cb",
					"incrementInt()": "f102a71d",
					"incrementUint8()": "84ea3606",
					"myInt()": "2cb777a6",
					"myUint()": "06540f7e",
					"myUint8()": "e2a4b2af",
					"myint8()": "63e05732",
					"setMyUint(uint256)": "e492fd84"
				}
			},
			"storageLayout": {
				"storage": [
					{
						"astId": 3,
						"contract": "ExampleUint8.sol:ExampleUint",
						"label": "myUint",
						"offset": 0,
						"slot": "0",
						"type": "t_uint256"
					},
					{
						"astId": 8,
						"contract": "ExampleUint8.sol:ExampleUint",
						"label": "myUint8",
						"offset": 0,
						"slot": "1",
						"type": "t_uint8"
					},
					{
						"astId": 10,
						"contract": "ExampleUint8.sol:ExampleUint",
						"label": "myint8",
						"offset": 1,
						"slot": "1",
						"type": "t_int8"
					},
					{
						"astId": 14,
						"contract": "ExampleUint8.sol:ExampleUint",
						"label": "myInt",
						"offset": 0,
						"slot": "2",
						"type": "t_int256"
					}
				],
				"types": {
					"t_int256": {
						"encoding": "inplace",
						"label": "int256",
						"numberOfBytes": "32"
					},
					"t_int8": {
						"encoding": "inplace",
						"label": "int8",
						"numberOfBytes": "1"
					},
					"t_uint256": {
						"encoding": "inplace",
						"label": "uint256",
						"numberOfBytes": "32"
					},
					"t_uint8": {
						"encoding": "inplace",
						"label": "uint8",
						"numberOfBytes": "1"
					}
				}
			},
			"userdoc": {
				"kind": "user",
				"methods": {},
				"version": 1
			}
		}
	}
}