{
	"Sample/ExampleContractCall.sol": {
		"ContractTwo": {
			"abi": [
				{
					"inputs": [
						{
							"internalType": "address",
							"name": "_contractOne",
							"type": "address"
						}
					],
					"name": "depositOnContractOne",
					"outputs": [],
					"stateMutability": "nonpayable",
					"type": "function"
				},
				{
					"stateMutability": "payable",
					"type": "receive"
				}
			],
			"devdoc": {
				"kind": "dev",
				"methods": {},
				"version": 1
			},
			"evm": {
				"assembly": "    /* \"Sample/ExampleContractCall.sol\":340:820  contract ContractTwo {... */\n  mstore(0x40, 0x80)\n  callvalue\n  dup1\n  iszero\n  tag_1\n  jumpi\n  0x00\n  dup1\n  revert\ntag_1:\n  pop\n  dataSize(sub_0)\n  dup1\n  dataOffset(sub_0)\n  0x00\n  codecopy\n  0x00\n  return\nstop\n\nsub_0: assembly {\n        /* \"Sample/ExampleContractCall.sol\":340:820  contract ContractTwo {... */\n      mstore(0x40, 0x80)\n      jumpi(tag_1, lt(calldatasize, 0x04))\n      shr(0xe0, calldataload(0x00))\n      dup1\n      0xac1dddca\n      eq\n      tag_3\n      jumpi\n      jump(tag_2)\n    tag_1:\n      jumpi(tag_2, calldatasize)\n      stop\n    tag_2:\n      0x00\n      dup1\n      revert\n        /* \"Sample/ExampleContractCall.sol\":405:817  function depositOnContractOne(address _contractOne) public {... */\n    tag_3:\n      callvalue\n      dup1\n      iszero\n      tag_6\n      jumpi\n      0x00\n      dup1\n      revert\n    tag_6:\n      pop\n      tag_7\n      0x04\n      dup1\n      calldatasize\n      sub\n      dup2\n      add\n      swap1\n      tag_8\n      swap2\n      swap1\n      tag_9\n      jump\t// in\n    tag_8:\n      tag_10\n      jump\t// in\n    tag_7:\n      stop\n    tag_10:\n        /* \"Sample/ExampleContractCall.sol\":717:729  bool success */\n      0x00\n        /* \"Sample/ExampleContractCall.sol\":735:747  _contractOne */\n      dup2\n        /* \"Sample/ExampleContractCall.sol\":735:752  _contractOne.call */\n      0xffffffffffffffffffffffffffffffffffffffff\n      and\n        /* \"Sample/ExampleContractCall.sol\":760:762  10 */\n      0x0a\n        /* \"Sample/ExampleContractCall.sol\":769:775  100000 */\n      0x0186a0\n        /* \"Sample/ExampleContractCall.sol\":735:780  _contractOne.call{value: 10, gas: 100000}(\"\") */\n      swap1\n      mload(0x40)\n      tag_12\n      swap1\n      tag_13\n      jump\t// in\n    tag_12:\n      0x00\n      mload(0x40)\n      dup1\n      dup4\n      sub\n      dup2\n      dup6\n      dup9\n      dup9\n      call\n      swap4\n      pop\n      pop\n      pop\n      pop\n      returndatasize\n      dup1\n      0x00\n      dup2\n      eq\n      tag_16\n      jumpi\n      mload(0x40)\n      swap2\n      pop\n      and(add(returndatasize, 0x3f), not(0x1f))\n      dup3\n      add\n      0x40\n      mstore\n      returndatasize\n      dup3\n      mstore\n      returndatasize\n      0x00\n      0x20\n      dup5\n      add\n      returndatacopy\n      jump(tag_15)\n    tag_16:\n      0x60\n      swap2\n      pop\n    tag_15:\n      pop\n        /* \"Sample/ExampleContractCall.sol\":716:780  (bool success, ) = _contractOne.call{value: 10, gas: 100000}(\"\") */\n      pop\n      swap1\n      pop\n        /* \"Sample/ExampleContractCall.sol\":799:806  success */\n      dup1\n        /* \"Sample/ExampleContractCall.sol\":791:807  require(success) */\n      tag_17\n      jumpi\n      0x00\n      dup1\n      revert\n    tag_17:\n        /* \"Sample/ExampleContractCall.sol\":464:817  {... */\n      pop\n        /* \"Sample/ExampleContractCall.sol\":405:817  function depositOnContractOne(address _contractOne) public {... */\n      pop\n      jump\t// out\n        /* \"#utility.yul\":88:205   */\n    tag_19:\n        /* \"#utility.yul\":197:198   */\n      0x00\n        /* \"#utility.yul\":194:195   */\n      dup1\n        /* \"#utility.yul\":187:199   */\n      revert\n        /* \"#utility.yul\":334:460   */\n    tag_21:\n        /* \"#utility.yul\":371:378   */\n      0x00\n        /* \"#utility.yul\":411:453   */\n      0xffffffffffffffffffffffffffffffffffffffff\n        /* \"#utility.yul\":404:409   */\n      dup3\n        /* \"#utility.yul\":400:454   */\n      and\n        /* \"#utility.yul\":389:454   */\n      swap1\n      pop\n        /* \"#utility.yul\":334:460   */\n      swap2\n      swap1\n      pop\n      jump\t// out\n        /* \"#utility.yul\":466:562   */\n    tag_22:\n        /* \"#utility.yul\":503:510   */\n      0x00\n        /* \"#utility.yul\":532:556   */\n      tag_34\n        /* \"#utility.yul\":550:555   */\n      dup3\n        /* \"#utility.yul\":532:556   */\n      tag_21\n      jump\t// in\n    tag_34:\n        /* \"#utility.yul\":521:556   */\n      swap1\n      pop\n        /* \"#utility.yul\":466:562   */\n      swap2\n      swap1\n      pop\n      jump\t// out\n        /* \"#utility.yul\":568:690   */\n    tag_23:\n        /* \"#utility.yul\":641:665   */\n      tag_36\n        /* \"#utility.yul\":659:664   */\n      dup2\n        /* \"#utility.yul\":641:665   */\n      tag_22\n      jump\t// in\n    tag_36:\n        /* \"#utility.yul\":634:639   */\n      dup2\n        /* \"#utility.yul\":631:666   */\n      eq\n        /* \"#utility.yul\":621:684   */\n      tag_37\n      jumpi\n        /* \"#utility.yul\":680:681   */\n      0x00\n        /* \"#utility.yul\":677:678   */\n      dup1\n        /* \"#utility.yul\":670:682   */\n      revert\n        /* \"#utility.yul\":621:684   */\n    tag_37:\n        /* \"#utility.yul\":568:690   */\n      pop\n      jump\t// out\n        /* \"#utility.yul\":696:835   */\n    tag_24:\n        /* \"#utility.yul\":742:747   */\n      0x00\n        /* \"#utility.yul\":780:786   */\n      dup2\n        /* \"#utility.yul\":767:787   */\n      calldataload\n        /* \"#utility.yul\":758:787   */\n      swap1\n      pop\n        /* \"#utility.yul\":796:829   */\n      tag_39\n        /* \"#utility.yul\":823:828   */\n      dup2\n        /* \"#utility.yul\":796:829   */\n      tag_23\n      jump\t// in\n    tag_39:\n        /* \"#utility.yul\":696:835   */\n      swap3\n      swap2\n      pop\n      pop\n      jump\t// out\n        /* \"#utility.yul\":841:1170   */\n    tag_9:\n        /* \"#utility.yul\":900:906   */\n      0x00\n        /* \"#utility.yul\":949:951   */\n      0x20\n        /* \"#utility.yul\":937:946   */\n      dup3\n        /* \"#utility.yul\":928:935   */\n      dup5\n        /* \"#utility.yul\":924:947   */\n      sub\n        /* \"#utility.yul\":920:952   */\n      slt\n        /* \"#utility.yul\":917:1036   */\n      iszero\n      tag_41\n      jumpi\n        /* \"#utility.yul\":955:1034   */\n      tag_42\n      tag_19\n      jump\t// in\n    tag_42:\n        /* \"#utility.yul\":917:1036   */\n    tag_41:\n        /* \"#utility.yul\":1075:1076   */\n      0x00\n        /* \"#utility.yul\":1100:1153   */\n      tag_43\n        /* \"#utility.yul\":1145:1152   */\n      dup5\n        /* \"#utility.yul\":1136:1142   */\n      dup3\n        /* \"#utility.yul\":1125:1134   */\n      dup6\n        /* \"#utility.yul\":1121:1143   */\n      add\n        /* \"#utility.yul\":1100:1153   */\n      tag_24\n      jump\t// in\n    tag_43:\n        /* \"#utility.yul\":1090:1153   */\n      swap2\n      pop\n        /* \"#utility.yul\":1046:1163   */\n      pop\n        /* \"#utility.yul\":841:1170   */\n      swap3\n      swap2\n      pop\n      pop\n      jump\t// out\n        /* \"#utility.yul\":1176:1323   */\n    tag_25:\n        /* \"#utility.yul\":1277:1288   */\n      0x00\n        /* \"#utility.yul\":1314:1317   */\n      dup2\n        /* \"#utility.yul\":1299:1317   */\n      swap1\n      pop\n        /* \"#utility.yul\":1176:1323   */\n      swap3\n      swap2\n      pop\n      pop\n      jump\t// out\n        /* \"#utility.yul\":1329:1443   */\n    tag_26:\n      pop\n      jump\t// out\n        /* \"#utility.yul\":1449:1847   */\n    tag_27:\n        /* \"#utility.yul\":1608:1611   */\n      0x00\n        /* \"#utility.yul\":1629:1712   */\n      tag_47\n        /* \"#utility.yul\":1710:1711   */\n      0x00\n        /* \"#utility.yul\":1705:1708   */\n      dup4\n        /* \"#utility.yul\":1629:1712   */\n      tag_25\n      jump\t// in\n    tag_47:\n        /* \"#utility.yul\":1622:1712   */\n      swap2\n      pop\n        /* \"#utility.yul\":1721:1814   */\n      tag_48\n        /* \"#utility.yul\":1810:1813   */\n      dup3\n        /* \"#utility.yul\":1721:1814   */\n      tag_26\n      jump\t// in\n    tag_48:\n        /* \"#utility.yul\":1839:1840   */\n      0x00\n        /* \"#utility.yul\":1834:1837   */\n      dup3\n        /* \"#utility.yul\":1830:1841   */\n      add\n        /* \"#utility.yul\":1823:1841   */\n      swap1\n      pop\n        /* \"#utility.yul\":1449:1847   */\n      swap2\n      swap1\n      pop\n      jump\t// out\n        /* \"#utility.yul\":1853:2232   */\n    tag_13:\n        /* \"#utility.yul\":2037:2040   */\n      0x00\n        /* \"#utility.yul\":2059:2206   */\n      tag_50\n        /* \"#utility.yul\":2202:2205   */\n      dup3\n        /* \"#utility.yul\":2059:2206   */\n      tag_27\n      jump\t// in\n    tag_50:\n        /* \"#utility.yul\":2052:2206   */\n      swap2\n      pop\n        /* \"#utility.yul\":2223:2226   */\n      dup2\n        /* \"#utility.yul\":2216:2226   */\n      swap1\n      pop\n        /* \"#utility.yul\":1853:2232   */\n      swap2\n      swap1\n      pop\n      jump\t// out\n\n    auxdata: 0xa26469706673582212208cd52871235b34c780a0ad528fd5ffe9d341da8cf8212bec70aa1a3e3df4438364736f6c63430008120033\n}\n",
				"bytecode": {
					"linkReferences": {},
					"object": "608060405234801561001057600080fd5b506101e4806100206000396000f3fe6080604052600436106100225760003560e01c8063ac1dddca1461002e57610029565b3661002957005b600080fd5b34801561003a57600080fd5b506100556004803603810190610050919061013b565b610057565b005b60008173ffffffffffffffffffffffffffffffffffffffff16600a620186a09060405161008390610199565b600060405180830381858888f193505050503d80600081146100c1576040519150601f19603f3d011682016040523d82523d6000602084013e6100c6565b606091505b50509050806100d457600080fd5b5050565b600080fd5b600073ffffffffffffffffffffffffffffffffffffffff82169050919050565b6000610108826100dd565b9050919050565b610118816100fd565b811461012357600080fd5b50565b6000813590506101358161010f565b92915050565b600060208284031215610151576101506100d8565b5b600061015f84828501610126565b91505092915050565b600081905092915050565b50565b6000610183600083610168565b915061018e82610173565b600082019050919050565b60006101a482610176565b915081905091905056fea26469706673582212208cd52871235b34c780a0ad528fd5ffe9d341da8cf8212bec70aa1a3e3df4438364736f6c63430008120033",
					"opcodes": "PUSH1 0x80 PUSH1 0x40 MSTORE CALLVALUE DUP1 ISZERO PUSH2 0x10 JUMPI PUSH1 0x0 DUP1 REVERT JUMPDEST POP PUSH2 0x1E4 DUP1 PUSH2 0x20 PUSH1 0x0 CODECOPY PUSH1 0x0 RETURN INVALID PUSH1 0x80 PUSH1 0x40 MSTORE PUSH1 0x4 CALLDATASIZE LT PUSH2 0x22 JUMPI PUSH1 0x0 CALLDATALOAD PUSH1 0xE0 SHR DUP1 PUSH4 0xAC1DDDCA EQ PUSH2 0x2E JUMPI PUSH2 0x29 JUMP JUMPDEST CALLDATASIZE PUSH2 0x29 JUMPI STOP JUMPDEST PUSH1 0x0 DUP1 REVERT JUMPDEST CALLVALUE DUP1 ISZERO PUSH2 0x3A JUMPI PUSH1 0x0 DUP1 REVERT JUMPDEST POP PUSH2 0x55 PUSH1 0x4 DUP1 CALLDATASIZE SUB DUP2 ADD SWAP1 PUSH2 0x50 SWAP2 SWAP1 PUSH2 0x13B JUMP JUMPDEST PUSH2 0x57 JUMP JUMPDEST STOP JUMPDEST PUSH1 0x0 DUP2 PUSH20 0xFFFFFFFFFFFFFFFFFFFFFFFFFFFFFFFFFFFFFFFF AND PUSH1 0xA PUSH3 0x186A0 SWAP1 PUSH1 0x40 MLOAD PUSH2 0x83 SWAP1 PUSH2 0x199 JUMP JUMPDEST PUSH1 0x0 PUSH1 0x40 MLOAD DUP1 DUP4 SUB DUP2 DUP6 DUP9 DUP9 CALL SWAP4 POP POP POP POP RETURNDATASIZE DUP1 PUSH1 0x0 DUP2 EQ PUSH2 0xC1 JUMPI PUSH1 0x40 MLOAD SWAP2 POP PUSH1 0x1F NOT PUSH1 0x3F RETURNDATASIZE ADD AND DUP3 ADD PUSH1 0x40 MSTORE RETURNDATASIZE DUP3 MSTORE RETURNDATASIZE PUSH1 0x0 PUSH1 0x20 DUP5 ADD RETURNDATACOPY PUSH2 0xC6 JUMP JUMPDEST PUSH1 0x60 SWAP2 POP JUMPDEST POP POP SWAP1 POP DUP1 PUSH2 0xD4 JUMPI PUSH1 0x0 DUP1 REVERT JUMPDEST POP POP JUMP JUMPDEST PUSH1 0x0 DUP1 REVERT JUMPDEST PUSH1 0x0 PUSH20 0xFFFFFFFFFFFFFFFFFFFFFFFFFFFFFFFFFFFFFFFF DUP3 AND SWAP1 POP SWAP2 SWAP1 POP JUMP JUMPDEST PUSH1 0x0 PUSH2 0x108 DUP3 PUSH2 0xDD JUMP JUMPDEST SWAP1 POP SWAP2 SWAP1 POP JUMP JUMPDEST PUSH2 0x118 DUP2 PUSH2 0xFD JUMP JUMPDEST DUP2 EQ PUSH2 0x123 JUMPI PUSH1 0x0 DUP1 REVERT JUMPDEST POP JUMP JUMPDEST PUSH1 0x0 DUP2 CALLDATALOAD SWAP1 POP PUSH2 0x135 DUP2 PUSH2 0x10F JUMP JUMPDEST SWAP3 SWAP2 POP POP JUMP JUMPDEST PUSH1 0x0 PUSH1 0x20 DUP3 DUP5 SUB SLT ISZERO PUSH2 0x151 JUMPI PUSH2 0x150 PUSH2 0xD8 JUMP JUMPDEST JUMPDEST PUSH1 0x0 PUSH2 0x15F DUP5 DUP3 DUP6 ADD PUSH2 0x126 JUMP JUMPDEST SWAP2 POP POP SWAP3 SWAP2 POP POP JUMP JUMPDEST PUSH1 0x0 DUP2 SWAP1 POP SWAP3 SWAP2 POP POP JUMP JUMPDEST POP JUMP JUMPDEST PUSH1 0x0 PUSH2 0x183 PUSH1 0x0 DUP4 PUSH2 0x168 JUMP JUMPDEST SWAP2 POP PUSH2 0x18E DUP3 PUSH2 0x173 JUMP JUMPDEST PUSH1 0x0 DUP3 ADD SWAP1 POP SWAP2 SWAP1 POP JUMP JUMPDEST PUSH1 0x0 PUSH2 0x1A4 DUP3 PUSH2 0x176 JUMP JUMPDEST SWAP2 POP DUP2 SWAP1 POP SWAP2 SWAP1 POP JUMP INVALID LOG2 PUSH5 0x6970667358 0x22 SLT KECCAK256 DUP13 0xD5 0x28 PUSH18 0x235B34C780A0AD528FD5FFE9D341DA8CF821 0x2B 0xEC PUSH17 0xAA1A3E3DF4438364736F6C634300081200 CALLER "
				},
				"gasEstimates": {
					"creation": {
						"codeDepositCost": "96800",
						"executionCost": "147",
						"totalCost": "96947"
					},
					"external": {
						"depositOnContractOne(address)": "infinite"
					}
				},
				"methodIdentifiers": {
					"depositOnContractOne(address)": "ac1dddca"
				}
			},
			"storageLayout": {
				"storage": [],
				"types": null
			},
			"userdoc": {
				"kind": "user",
				"methods": {},
				"version": 1
			}
		}
	}
}