{
	"Labs/MoneyWallet.sol": {
		"MoneyWallet": {
			"abi": [
				{
					"inputs": [],
					"name": "currentBal",
					"outputs": [
						{
							"internalType": "uint256",
							"name": "",
							"type": "uint256"
						}
					],
					"stateMutability": "view",
					"type": "function"
				},
				{
					"inputs": [],
					"name": "deposit",
					"outputs": [],
					"stateMutability": "payable",
					"type": "function"
				},
				{
					"inputs": [],
					"name": "viewBalance",
					"outputs": [
						{
							"internalType": "uint256",
							"name": "",
							"type": "uint256"
						}
					],
					"stateMutability": "view",
					"type": "function"
				},
				{
					"inputs": [],
					"name": "withdraw",
					"outputs": [],
					"stateMutability": "payable",
					"type": "function"
				},
				{
					"inputs": [],
					"name": "withdrawAll",
					"outputs": [],
					"stateMutability": "payable",
					"type": "function"
				},
				{
					"inputs": [
						{
							"internalType": "address payable",
							"name": "_inputAddr",
							"type": "address"
						}
					],
					"name": "withdrawAllToAddr",
					"outputs": [],
					"stateMutability": "nonpayable",
					"type": "function"
				},
				{
					"inputs": [
						{
							"internalType": "address payable",
							"name": "_inputAddr",
							"type": "address"
						}
					],
					"name": "withdrawToAddr",
					"outputs": [],
					"stateMutability": "payable",
					"type": "function"
				}
			],
			"devdoc": {
				"kind": "dev",
				"methods": {},
				"version": 1
			},
			"evm": {
				"assembly": "    /* \"Labs/MoneyWallet.sol\":60:1093  contract MoneyWallet {... */\n  mstore(0x40, 0x80)\n  callvalue\n  dup1\n  iszero\n  tag_1\n  jumpi\n  0x00\n  dup1\n  revert\ntag_1:\n  pop\n  dataSize(sub_0)\n  dup1\n  dataOffset(sub_0)\n  0x00\n  codecopy\n  0x00\n  return\nstop\n\nsub_0: assembly {\n        /* \"Labs/MoneyWallet.sol\":60:1093  contract MoneyWallet {... */\n      mstore(0x40, 0x80)\n      jumpi(tag_1, lt(calldatasize, 0x04))\n      shr(0xe0, calldataload(0x00))\n      dup1\n      0x6fc44344\n      gt\n      tag_9\n      jumpi\n      dup1\n      0x6fc44344\n      eq\n      tag_5\n      jumpi\n      dup1\n      0x852dbc14\n      eq\n      tag_6\n      jumpi\n      dup1\n      0x853828b6\n      eq\n      tag_7\n      jumpi\n      dup1\n      0xd0e30db0\n      eq\n      tag_8\n      jumpi\n      jump(tag_1)\n    tag_9:\n      dup1\n      0x3ccfd60b\n      eq\n      tag_2\n      jumpi\n      dup1\n      0x3ff1e05b\n      eq\n      tag_3\n      jumpi\n      dup1\n      0x49c1b44d\n      eq\n      tag_4\n      jumpi\n    tag_1:\n      0x00\n      dup1\n      revert\n        /* \"Labs/MoneyWallet.sol\":781:928  function withdraw() public payable {... */\n    tag_2:\n      tag_10\n      tag_11\n      jump\t// in\n    tag_10:\n      stop\n        /* \"Labs/MoneyWallet.sol\":281:377  function viewBalance() public view returns(uint) {... */\n    tag_3:\n      callvalue\n      dup1\n      iszero\n      tag_12\n      jumpi\n      0x00\n      dup1\n      revert\n    tag_12:\n      pop\n      tag_13\n      tag_14\n      jump\t// in\n    tag_13:\n      mload(0x40)\n      tag_15\n      swap2\n      swap1\n      tag_16\n      jump\t// in\n    tag_15:\n      mload(0x40)\n      dup1\n      swap2\n      sub\n      swap1\n      return\n        /* \"Labs/MoneyWallet.sol\":422:592  function withdrawToAddr(address payable _inputAddr) public payable {... */\n    tag_4:\n      tag_17\n      0x04\n      dup1\n      calldatasize\n      sub\n      dup2\n      add\n      swap1\n      tag_18\n      swap2\n      swap1\n      tag_19\n      jump\t// in\n    tag_18:\n      tag_20\n      jump\t// in\n    tag_17:\n      stop\n        /* \"Labs/MoneyWallet.sol\":88:110  uint public currentBal */\n    tag_5:\n      callvalue\n      dup1\n      iszero\n      tag_21\n      jumpi\n      0x00\n      dup1\n      revert\n    tag_21:\n      pop\n      tag_22\n      tag_23\n      jump\t// in\n    tag_22:\n      mload(0x40)\n      tag_24\n      swap2\n      swap1\n      tag_16\n      jump\t// in\n    tag_24:\n      mload(0x40)\n      dup1\n      swap2\n      sub\n      swap1\n      return\n        /* \"Labs/MoneyWallet.sol\":641:756  function withdrawAllToAddr(address payable _inputAddr) public {... */\n    tag_6:\n      callvalue\n      dup1\n      iszero\n      tag_25\n      jumpi\n      0x00\n      dup1\n      revert\n    tag_25:\n      pop\n      tag_26\n      0x04\n      dup1\n      calldatasize\n      sub\n      dup2\n      add\n      swap1\n      tag_27\n      swap2\n      swap1\n      tag_19\n      jump\t// in\n    tag_27:\n      tag_28\n      jump\t// in\n    tag_26:\n      stop\n        /* \"Labs/MoneyWallet.sol\":956:1090  function withdrawAll() public payable {... */\n    tag_7:\n      tag_29\n      tag_30\n      jump\t// in\n    tag_29:\n      stop\n        /* \"Labs/MoneyWallet.sol\":135:211  function deposit() public payable {... */\n    tag_8:\n      tag_31\n      tag_32\n      jump\t// in\n    tag_31:\n      stop\n        /* \"Labs/MoneyWallet.sol\":781:928  function withdraw() public payable {... */\n    tag_11:\n        /* \"Labs/MoneyWallet.sol\":844:853  msg.value */\n      callvalue\n        /* \"Labs/MoneyWallet.sol\":831:841  currentBal */\n      sload(0x00)\n        /* \"Labs/MoneyWallet.sol\":831:853  currentBal > msg.value */\n      gt\n        /* \"Labs/MoneyWallet.sol\":827:921  if (currentBal > msg.value) {... */\n      iszero\n      tag_34\n      jumpi\n        /* \"Labs/MoneyWallet.sol\":878:888  msg.sender */\n      caller\n        /* \"Labs/MoneyWallet.sol\":870:898  payable(msg.sender).transfer */\n      0xffffffffffffffffffffffffffffffffffffffff\n      and\n        /* \"Labs/MoneyWallet.sol\":870:909  payable(msg.sender).transfer(msg.value) */\n      0x08fc\n        /* \"Labs/MoneyWallet.sol\":899:908  msg.value */\n      callvalue\n        /* \"Labs/MoneyWallet.sol\":870:909  payable(msg.sender).transfer(msg.value) */\n      swap1\n      dup2\n      iszero\n      mul\n      swap1\n      mload(0x40)\n      0x00\n      mload(0x40)\n      dup1\n      dup4\n      sub\n      dup2\n      dup6\n      dup9\n      dup9\n      call\n      swap4\n      pop\n      pop\n      pop\n      pop\n      iszero\n      dup1\n      iszero\n      tag_36\n      jumpi\n      returndatasize\n      0x00\n      dup1\n      returndatacopy\n      revert(0x00, returndatasize)\n    tag_36:\n      pop\n        /* \"Labs/MoneyWallet.sol\":827:921  if (currentBal > msg.value) {... */\n    tag_34:\n        /* \"Labs/MoneyWallet.sol\":781:928  function withdraw() public payable {... */\n      jump\t// out\n        /* \"Labs/MoneyWallet.sol\":281:377  function viewBalance() public view returns(uint) {... */\n    tag_14:\n        /* \"Labs/MoneyWallet.sol\":324:328  uint */\n      0x00\n        /* \"Labs/MoneyWallet.sol\":348:369  address(this).balance */\n      selfbalance\n        /* \"Labs/MoneyWallet.sol\":341:369  return address(this).balance */\n      swap1\n      pop\n        /* \"Labs/MoneyWallet.sol\":281:377  function viewBalance() public view returns(uint) {... */\n      swap1\n      jump\t// out\n        /* \"Labs/MoneyWallet.sol\":422:592  function withdrawToAddr(address payable _inputAddr) public payable {... */\n    tag_20:\n        /* \"Labs/MoneyWallet.sol\":517:526  msg.value */\n      callvalue\n        /* \"Labs/MoneyWallet.sol\":504:514  currentBal */\n      sload(0x00)\n        /* \"Labs/MoneyWallet.sol\":504:526  currentBal > msg.value */\n      gt\n        /* \"Labs/MoneyWallet.sol\":500:585  if (currentBal > msg.value) {... */\n      iszero\n      tag_39\n      jumpi\n        /* \"Labs/MoneyWallet.sol\":543:553  _inputAddr */\n      dup1\n        /* \"Labs/MoneyWallet.sol\":543:562  _inputAddr.transfer */\n      0xffffffffffffffffffffffffffffffffffffffff\n      and\n        /* \"Labs/MoneyWallet.sol\":543:573  _inputAddr.transfer(msg.value) */\n      0x08fc\n        /* \"Labs/MoneyWallet.sol\":563:572  msg.value */\n      callvalue\n        /* \"Labs/MoneyWallet.sol\":543:573  _inputAddr.transfer(msg.value) */\n      swap1\n      dup2\n      iszero\n      mul\n      swap1\n      mload(0x40)\n      0x00\n      mload(0x40)\n      dup1\n      dup4\n      sub\n      dup2\n      dup6\n      dup9\n      dup9\n      call\n      swap4\n      pop\n      pop\n      pop\n      pop\n      iszero\n      dup1\n      iszero\n      tag_41\n      jumpi\n      returndatasize\n      0x00\n      dup1\n      returndatacopy\n      revert(0x00, returndatasize)\n    tag_41:\n      pop\n        /* \"Labs/MoneyWallet.sol\":500:585  if (currentBal > msg.value) {... */\n    tag_39:\n        /* \"Labs/MoneyWallet.sol\":422:592  function withdrawToAddr(address payable _inputAddr) public payable {... */\n      pop\n      jump\t// out\n        /* \"Labs/MoneyWallet.sol\":88:110  uint public currentBal */\n    tag_23:\n      sload(0x00)\n      dup2\n      jump\t// out\n        /* \"Labs/MoneyWallet.sol\":641:756  function withdrawAllToAddr(address payable _inputAddr) public {... */\n    tag_28:\n        /* \"Labs/MoneyWallet.sol\":714:724  _inputAddr */\n      dup1\n        /* \"Labs/MoneyWallet.sol\":714:733  _inputAddr.transfer */\n      0xffffffffffffffffffffffffffffffffffffffff\n      and\n        /* \"Labs/MoneyWallet.sol\":714:748  _inputAddr.transfer(viewBalance()) */\n      0x08fc\n        /* \"Labs/MoneyWallet.sol\":734:747  viewBalance() */\n      tag_43\n        /* \"Labs/MoneyWallet.sol\":734:745  viewBalance */\n      tag_14\n        /* \"Labs/MoneyWallet.sol\":734:747  viewBalance() */\n      jump\t// in\n    tag_43:\n        /* \"Labs/MoneyWallet.sol\":714:748  _inputAddr.transfer(viewBalance()) */\n      swap1\n      dup2\n      iszero\n      mul\n      swap1\n      mload(0x40)\n      0x00\n      mload(0x40)\n      dup1\n      dup4\n      sub\n      dup2\n      dup6\n      dup9\n      dup9\n      call\n      swap4\n      pop\n      pop\n      pop\n      pop\n      iszero\n      dup1\n      iszero\n      tag_45\n      jumpi\n      returndatasize\n      0x00\n      dup1\n      returndatacopy\n      revert(0x00, returndatasize)\n    tag_45:\n      pop\n        /* \"Labs/MoneyWallet.sol\":641:756  function withdrawAllToAddr(address payable _inputAddr) public {... */\n      pop\n      jump\t// out\n        /* \"Labs/MoneyWallet.sol\":956:1090  function withdrawAll() public payable {... */\n    tag_30:\n        /* \"Labs/MoneyWallet.sol\":1005:1023  address payable to */\n      0x00\n        /* \"Labs/MoneyWallet.sol\":1034:1044  msg.sender */\n      caller\n        /* \"Labs/MoneyWallet.sol\":1005:1045  address payable to = payable(msg.sender) */\n      swap1\n      pop\n        /* \"Labs/MoneyWallet.sol\":1056:1058  to */\n      dup1\n        /* \"Labs/MoneyWallet.sol\":1056:1067  to.transfer */\n      0xffffffffffffffffffffffffffffffffffffffff\n      and\n        /* \"Labs/MoneyWallet.sol\":1056:1082  to.transfer(viewBalance()) */\n      0x08fc\n        /* \"Labs/MoneyWallet.sol\":1068:1081  viewBalance() */\n      tag_47\n        /* \"Labs/MoneyWallet.sol\":1068:1079  viewBalance */\n      tag_14\n        /* \"Labs/MoneyWallet.sol\":1068:1081  viewBalance() */\n      jump\t// in\n    tag_47:\n        /* \"Labs/MoneyWallet.sol\":1056:1082  to.transfer(viewBalance()) */\n      swap1\n      dup2\n      iszero\n      mul\n      swap1\n      mload(0x40)\n      0x00\n      mload(0x40)\n      dup1\n      dup4\n      sub\n      dup2\n      dup6\n      dup9\n      dup9\n      call\n      swap4\n      pop\n      pop\n      pop\n      pop\n      iszero\n      dup1\n      iszero\n      tag_49\n      jumpi\n      returndatasize\n      0x00\n      dup1\n      returndatacopy\n      revert(0x00, returndatasize)\n    tag_49:\n      pop\n        /* \"Labs/MoneyWallet.sol\":994:1090  {... */\n      pop\n        /* \"Labs/MoneyWallet.sol\":956:1090  function withdrawAll() public payable {... */\n      jump\t// out\n        /* \"Labs/MoneyWallet.sol\":135:211  function deposit() public payable {... */\n    tag_32:\n        /* \"Labs/MoneyWallet.sol\":194:203  msg.value */\n      callvalue\n        /* \"Labs/MoneyWallet.sol\":180:190  currentBal */\n      0x00\n      dup1\n        /* \"Labs/MoneyWallet.sol\":180:203  currentBal += msg.value */\n      dup3\n      dup3\n      sload\n      tag_51\n      swap2\n      swap1\n      tag_52\n      jump\t// in\n    tag_51:\n      swap3\n      pop\n      pop\n      dup2\n      swap1\n      sstore\n      pop\n        /* \"Labs/MoneyWallet.sol\":135:211  function deposit() public payable {... */\n      jump\t// out\n        /* \"#utility.yul\":7:84   */\n    tag_53:\n        /* \"#utility.yul\":44:51   */\n      0x00\n        /* \"#utility.yul\":73:78   */\n      dup2\n        /* \"#utility.yul\":62:78   */\n      swap1\n      pop\n        /* \"#utility.yul\":7:84   */\n      swap2\n      swap1\n      pop\n      jump\t// out\n        /* \"#utility.yul\":90:208   */\n    tag_54:\n        /* \"#utility.yul\":177:201   */\n      tag_66\n        /* \"#utility.yul\":195:200   */\n      dup2\n        /* \"#utility.yul\":177:201   */\n      tag_53\n      jump\t// in\n    tag_66:\n        /* \"#utility.yul\":172:175   */\n      dup3\n        /* \"#utility.yul\":165:202   */\n      mstore\n        /* \"#utility.yul\":90:208   */\n      pop\n      pop\n      jump\t// out\n        /* \"#utility.yul\":214:436   */\n    tag_16:\n        /* \"#utility.yul\":307:311   */\n      0x00\n        /* \"#utility.yul\":345:347   */\n      0x20\n        /* \"#utility.yul\":334:343   */\n      dup3\n        /* \"#utility.yul\":330:348   */\n      add\n        /* \"#utility.yul\":322:348   */\n      swap1\n      pop\n        /* \"#utility.yul\":358:429   */\n      tag_68\n        /* \"#utility.yul\":426:427   */\n      0x00\n        /* \"#utility.yul\":415:424   */\n      dup4\n        /* \"#utility.yul\":411:428   */\n      add\n        /* \"#utility.yul\":402:408   */\n      dup5\n        /* \"#utility.yul\":358:429   */\n      tag_54\n      jump\t// in\n    tag_68:\n        /* \"#utility.yul\":214:436   */\n      swap3\n      swap2\n      pop\n      pop\n      jump\t// out\n        /* \"#utility.yul\":523:640   */\n    tag_56:\n        /* \"#utility.yul\":632:633   */\n      0x00\n        /* \"#utility.yul\":629:630   */\n      dup1\n        /* \"#utility.yul\":622:634   */\n      revert\n        /* \"#utility.yul\":769:895   */\n    tag_58:\n        /* \"#utility.yul\":806:813   */\n      0x00\n        /* \"#utility.yul\":846:888   */\n      0xffffffffffffffffffffffffffffffffffffffff\n        /* \"#utility.yul\":839:844   */\n      dup3\n        /* \"#utility.yul\":835:889   */\n      and\n        /* \"#utility.yul\":824:889   */\n      swap1\n      pop\n        /* \"#utility.yul\":769:895   */\n      swap2\n      swap1\n      pop\n      jump\t// out\n        /* \"#utility.yul\":901:1005   */\n    tag_59:\n        /* \"#utility.yul\":946:953   */\n      0x00\n        /* \"#utility.yul\":975:999   */\n      tag_74\n        /* \"#utility.yul\":993:998   */\n      dup3\n        /* \"#utility.yul\":975:999   */\n      tag_58\n      jump\t// in\n    tag_74:\n        /* \"#utility.yul\":964:999   */\n      swap1\n      pop\n        /* \"#utility.yul\":901:1005   */\n      swap2\n      swap1\n      pop\n      jump\t// out\n        /* \"#utility.yul\":1011:1149   */\n    tag_60:\n        /* \"#utility.yul\":1092:1124   */\n      tag_76\n        /* \"#utility.yul\":1118:1123   */\n      dup2\n        /* \"#utility.yul\":1092:1124   */\n      tag_59\n      jump\t// in\n    tag_76:\n        /* \"#utility.yul\":1085:1090   */\n      dup2\n        /* \"#utility.yul\":1082:1125   */\n      eq\n        /* \"#utility.yul\":1072:1143   */\n      tag_77\n      jumpi\n        /* \"#utility.yul\":1139:1140   */\n      0x00\n        /* \"#utility.yul\":1136:1137   */\n      dup1\n        /* \"#utility.yul\":1129:1141   */\n      revert\n        /* \"#utility.yul\":1072:1143   */\n    tag_77:\n        /* \"#utility.yul\":1011:1149   */\n      pop\n      jump\t// out\n        /* \"#utility.yul\":1155:1310   */\n    tag_61:\n        /* \"#utility.yul\":1209:1214   */\n      0x00\n        /* \"#utility.yul\":1247:1253   */\n      dup2\n        /* \"#utility.yul\":1234:1254   */\n      calldataload\n        /* \"#utility.yul\":1225:1254   */\n      swap1\n      pop\n        /* \"#utility.yul\":1263:1304   */\n      tag_79\n        /* \"#utility.yul\":1298:1303   */\n      dup2\n        /* \"#utility.yul\":1263:1304   */\n      tag_60\n      jump\t// in\n    tag_79:\n        /* \"#utility.yul\":1155:1310   */\n      swap3\n      swap2\n      pop\n      pop\n      jump\t// out\n        /* \"#utility.yul\":1316:1661   */\n    tag_19:\n        /* \"#utility.yul\":1383:1389   */\n      0x00\n        /* \"#utility.yul\":1432:1434   */\n      0x20\n        /* \"#utility.yul\":1420:1429   */\n      dup3\n        /* \"#utility.yul\":1411:1418   */\n      dup5\n        /* \"#utility.yul\":1407:1430   */\n      sub\n        /* \"#utility.yul\":1403:1435   */\n      slt\n        /* \"#utility.yul\":1400:1519   */\n      iszero\n      tag_81\n      jumpi\n        /* \"#utility.yul\":1438:1517   */\n      tag_82\n      tag_56\n      jump\t// in\n    tag_82:\n        /* \"#utility.yul\":1400:1519   */\n    tag_81:\n        /* \"#utility.yul\":1558:1559   */\n      0x00\n        /* \"#utility.yul\":1583:1644   */\n      tag_83\n        /* \"#utility.yul\":1636:1643   */\n      dup5\n        /* \"#utility.yul\":1627:1633   */\n      dup3\n        /* \"#utility.yul\":1616:1625   */\n      dup6\n        /* \"#utility.yul\":1612:1634   */\n      add\n        /* \"#utility.yul\":1583:1644   */\n      tag_61\n      jump\t// in\n    tag_83:\n        /* \"#utility.yul\":1573:1644   */\n      swap2\n      pop\n        /* \"#utility.yul\":1529:1654   */\n      pop\n        /* \"#utility.yul\":1316:1661   */\n      swap3\n      swap2\n      pop\n      pop\n      jump\t// out\n        /* \"#utility.yul\":1667:1847   */\n    tag_62:\n        /* \"#utility.yul\":1715:1792   */\n      0x4e487b7100000000000000000000000000000000000000000000000000000000\n        /* \"#utility.yul\":1712:1713   */\n      0x00\n        /* \"#utility.yul\":1705:1793   */\n      mstore\n        /* \"#utility.yul\":1812:1816   */\n      0x11\n        /* \"#utility.yul\":1809:1810   */\n      0x04\n        /* \"#utility.yul\":1802:1817   */\n      mstore\n        /* \"#utility.yul\":1836:1840   */\n      0x24\n        /* \"#utility.yul\":1833:1834   */\n      0x00\n        /* \"#utility.yul\":1826:1841   */\n      revert\n        /* \"#utility.yul\":1853:2044   */\n    tag_52:\n        /* \"#utility.yul\":1893:1896   */\n      0x00\n        /* \"#utility.yul\":1912:1932   */\n      tag_86\n        /* \"#utility.yul\":1930:1931   */\n      dup3\n        /* \"#utility.yul\":1912:1932   */\n      tag_53\n      jump\t// in\n    tag_86:\n        /* \"#utility.yul\":1907:1932   */\n      swap2\n      pop\n        /* \"#utility.yul\":1946:1966   */\n      tag_87\n        /* \"#utility.yul\":1964:1965   */\n      dup4\n        /* \"#utility.yul\":1946:1966   */\n      tag_53\n      jump\t// in\n    tag_87:\n        /* \"#utility.yul\":1941:1966   */\n      swap3\n      pop\n        /* \"#utility.yul\":1989:1990   */\n      dup3\n        /* \"#utility.yul\":1986:1987   */\n      dup3\n        /* \"#utility.yul\":1982:1991   */\n      add\n        /* \"#utility.yul\":1975:1991   */\n      swap1\n      pop\n        /* \"#utility.yul\":2010:2013   */\n      dup1\n        /* \"#utility.yul\":2007:2008   */\n      dup3\n        /* \"#utility.yul\":2004:2014   */\n      gt\n        /* \"#utility.yul\":2001:2037   */\n      iszero\n      tag_88\n      jumpi\n        /* \"#utility.yul\":2017:2035   */\n      tag_89\n      tag_62\n      jump\t// in\n    tag_89:\n        /* \"#utility.yul\":2001:2037   */\n    tag_88:\n        /* \"#utility.yul\":1853:2044   */\n      swap3\n      swap2\n      pop\n      pop\n      jump\t// out\n\n    auxdata: 0xa2646970667358221220566b6771d4936502f64a8a05cb343b4c90009f0e1fea46addbef932e7b4674bf64736f6c63430008120033\n}\n",
				"bytecode": {
					"linkReferences": {},
					"object": "608060405234801561001057600080fd5b50610403806100206000396000f3fe6080604052600436106100705760003560e01c80636fc443441161004e5780636fc44344146100c6578063852dbc14146100f1578063853828b61461011a578063d0e30db01461012457610070565b80633ccfd60b146100755780633ff1e05b1461007f57806349c1b44d146100aa575b600080fd5b61007d61012e565b005b34801561008b57600080fd5b50610094610182565b6040516100a191906102bf565b60405180910390f35b6100c460048036038101906100bf919061033d565b61018a565b005b3480156100d257600080fd5b506100db6101df565b6040516100e891906102bf565b60405180910390f35b3480156100fd57600080fd5b506101186004803603810190610113919061033d565b6101e5565b005b610122610236565b005b61012c61028c565b005b346000541115610180573373ffffffffffffffffffffffffffffffffffffffff166108fc349081150290604051600060405180830381858888f1935050505015801561017e573d6000803e3d6000fd5b505b565b600047905090565b3460005411156101dc578073ffffffffffffffffffffffffffffffffffffffff166108fc349081150290604051600060405180830381858888f193505050501580156101da573d6000803e3d6000fd5b505b50565b60005481565b8073ffffffffffffffffffffffffffffffffffffffff166108fc610207610182565b9081150290604051600060405180830381858888f19350505050158015610232573d6000803e3d6000fd5b5050565b60003390508073ffffffffffffffffffffffffffffffffffffffff166108fc61025d610182565b9081150290604051600060405180830381858888f19350505050158015610288573d6000803e3d6000fd5b5050565b3460008082825461029d9190610399565b92505081905550565b6000819050919050565b6102b9816102a6565b82525050565b60006020820190506102d460008301846102b0565b92915050565b600080fd5b600073ffffffffffffffffffffffffffffffffffffffff82169050919050565b600061030a826102df565b9050919050565b61031a816102ff565b811461032557600080fd5b50565b60008135905061033781610311565b92915050565b600060208284031215610353576103526102da565b5b600061036184828501610328565b91505092915050565b7f4e487b7100000000000000000000000000000000000000000000000000000000600052601160045260246000fd5b60006103a4826102a6565b91506103af836102a6565b92508282019050808211156103c7576103c661036a565b5b9291505056fea2646970667358221220566b6771d4936502f64a8a05cb343b4c90009f0e1fea46addbef932e7b4674bf64736f6c63430008120033",
					"opcodes": "PUSH1 0x80 PUSH1 0x40 MSTORE CALLVALUE DUP1 ISZERO PUSH2 0x10 JUMPI PUSH1 0x0 DUP1 REVERT JUMPDEST POP PUSH2 0x403 DUP1 PUSH2 0x20 PUSH1 0x0 CODECOPY PUSH1 0x0 RETURN INVALID PUSH1 0x80 PUSH1 0x40 MSTORE PUSH1 0x4 CALLDATASIZE LT PUSH2 0x70 JUMPI PUSH1 0x0 CALLDATALOAD PUSH1 0xE0 SHR DUP1 PUSH4 0x6FC44344 GT PUSH2 0x4E JUMPI DUP1 PUSH4 0x6FC44344 EQ PUSH2 0xC6 JUMPI DUP1 PUSH4 0x852DBC14 EQ PUSH2 0xF1 JUMPI DUP1 PUSH4 0x853828B6 EQ PUSH2 0x11A JUMPI DUP1 PUSH4 0xD0E30DB0 EQ PUSH2 0x124 JUMPI PUSH2 0x70 JUMP JUMPDEST DUP1 PUSH4 0x3CCFD60B EQ PUSH2 0x75 JUMPI DUP1 PUSH4 0x3FF1E05B EQ PUSH2 0x7F JUMPI DUP1 PUSH4 0x49C1B44D EQ PUSH2 0xAA JUMPI JUMPDEST PUSH1 0x0 DUP1 REVERT JUMPDEST PUSH2 0x7D PUSH2 0x12E JUMP JUMPDEST STOP JUMPDEST CALLVALUE DUP1 ISZERO PUSH2 0x8B JUMPI PUSH1 0x0 DUP1 REVERT JUMPDEST POP PUSH2 0x94 PUSH2 0x182 JUMP JUMPDEST PUSH1 0x40 MLOAD PUSH2 0xA1 SWAP2 SWAP1 PUSH2 0x2BF JUMP JUMPDEST PUSH1 0x40 MLOAD DUP1 SWAP2 SUB SWAP1 RETURN JUMPDEST PUSH2 0xC4 PUSH1 0x4 DUP1 CALLDATASIZE SUB DUP2 ADD SWAP1 PUSH2 0xBF SWAP2 SWAP1 PUSH2 0x33D JUMP JUMPDEST PUSH2 0x18A JUMP JUMPDEST STOP JUMPDEST CALLVALUE DUP1 ISZERO PUSH2 0xD2 JUMPI PUSH1 0x0 DUP1 REVERT JUMPDEST POP PUSH2 0xDB PUSH2 0x1DF JUMP JUMPDEST PUSH1 0x40 MLOAD PUSH2 0xE8 SWAP2 SWAP1 PUSH2 0x2BF JUMP JUMPDEST PUSH1 0x40 MLOAD DUP1 SWAP2 SUB SWAP1 RETURN JUMPDEST CALLVALUE DUP1 ISZERO PUSH2 0xFD JUMPI PUSH1 0x0 DUP1 REVERT JUMPDEST POP PUSH2 0x118 PUSH1 0x4 DUP1 CALLDATASIZE SUB DUP2 ADD SWAP1 PUSH2 0x113 SWAP2 SWAP1 PUSH2 0x33D JUMP JUMPDEST PUSH2 0x1E5 JUMP JUMPDEST STOP JUMPDEST PUSH2 0x122 PUSH2 0x236 JUMP JUMPDEST STOP JUMPDEST PUSH2 0x12C PUSH2 0x28C JUMP JUMPDEST STOP JUMPDEST CALLVALUE PUSH1 0x0 SLOAD GT ISZERO PUSH2 0x180 JUMPI CALLER PUSH20 0xFFFFFFFFFFFFFFFFFFFFFFFFFFFFFFFFFFFFFFFF AND PUSH2 0x8FC CALLVALUE SWAP1 DUP2 ISZERO MUL SWAP1 PUSH1 0x40 MLOAD PUSH1 0x0 PUSH1 0x40 MLOAD DUP1 DUP4 SUB DUP2 DUP6 DUP9 DUP9 CALL SWAP4 POP POP POP POP ISZERO DUP1 ISZERO PUSH2 0x17E JUMPI RETURNDATASIZE PUSH1 0x0 DUP1 RETURNDATACOPY RETURNDATASIZE PUSH1 0x0 REVERT JUMPDEST POP JUMPDEST JUMP JUMPDEST PUSH1 0x0 SELFBALANCE SWAP1 POP SWAP1 JUMP JUMPDEST CALLVALUE PUSH1 0x0 SLOAD GT ISZERO PUSH2 0x1DC JUMPI DUP1 PUSH20 0xFFFFFFFFFFFFFFFFFFFFFFFFFFFFFFFFFFFFFFFF AND PUSH2 0x8FC CALLVALUE SWAP1 DUP2 ISZERO MUL SWAP1 PUSH1 0x40 MLOAD PUSH1 0x0 PUSH1 0x40 MLOAD DUP1 DUP4 SUB DUP2 DUP6 DUP9 DUP9 CALL SWAP4 POP POP POP POP ISZERO DUP1 ISZERO PUSH2 0x1DA JUMPI RETURNDATASIZE PUSH1 0x0 DUP1 RETURNDATACOPY RETURNDATASIZE PUSH1 0x0 REVERT JUMPDEST POP JUMPDEST POP JUMP JUMPDEST PUSH1 0x0 SLOAD DUP2 JUMP JUMPDEST DUP1 PUSH20 0xFFFFFFFFFFFFFFFFFFFFFFFFFFFFFFFFFFFFFFFF AND PUSH2 0x8FC PUSH2 0x207 PUSH2 0x182 JUMP JUMPDEST SWAP1 DUP2 ISZERO MUL SWAP1 PUSH1 0x40 MLOAD PUSH1 0x0 PUSH1 0x40 MLOAD DUP1 DUP4 SUB DUP2 DUP6 DUP9 DUP9 CALL SWAP4 POP POP POP POP ISZERO DUP1 ISZERO PUSH2 0x232 JUMPI RETURNDATASIZE PUSH1 0x0 DUP1 RETURNDATACOPY RETURNDATASIZE PUSH1 0x0 REVERT JUMPDEST POP POP JUMP JUMPDEST PUSH1 0x0 CALLER SWAP1 POP DUP1 PUSH20 0xFFFFFFFFFFFFFFFFFFFFFFFFFFFFFFFFFFFFFFFF AND PUSH2 0x8FC PUSH2 0x25D PUSH2 0x182 JUMP JUMPDEST SWAP1 DUP2 ISZERO MUL SWAP1 PUSH1 0x40 MLOAD PUSH1 0x0 PUSH1 0x40 MLOAD DUP1 DUP4 SUB DUP2 DUP6 DUP9 DUP9 CALL SWAP4 POP POP POP POP ISZERO DUP1 ISZERO PUSH2 0x288 JUMPI RETURNDATASIZE PUSH1 0x0 DUP1 RETURNDATACOPY RETURNDATASIZE PUSH1 0x0 REVERT JUMPDEST POP POP JUMP JUMPDEST CALLVALUE PUSH1 0x0 DUP1 DUP3 DUP3 SLOAD PUSH2 0x29D SWAP2 SWAP1 PUSH2 0x399 JUMP JUMPDEST SWAP3 POP POP DUP2 SWAP1 SSTORE POP JUMP JUMPDEST PUSH1 0x0 DUP2 SWAP1 POP SWAP2 SWAP1 POP JUMP JUMPDEST PUSH2 0x2B9 DUP2 PUSH2 0x2A6 JUMP JUMPDEST DUP3 MSTORE POP POP JUMP JUMPDEST PUSH1 0x0 PUSH1 0x20 DUP3 ADD SWAP1 POP PUSH2 0x2D4 PUSH1 0x0 DUP4 ADD DUP5 PUSH2 0x2B0 JUMP JUMPDEST SWAP3 SWAP2 POP POP JUMP JUMPDEST PUSH1 0x0 DUP1 REVERT JUMPDEST PUSH1 0x0 PUSH20 0xFFFFFFFFFFFFFFFFFFFFFFFFFFFFFFFFFFFFFFFF DUP3 AND SWAP1 POP SWAP2 SWAP1 POP JUMP JUMPDEST PUSH1 0x0 PUSH2 0x30A DUP3 PUSH2 0x2DF JUMP JUMPDEST SWAP1 POP SWAP2 SWAP1 POP JUMP JUMPDEST PUSH2 0x31A DUP2 PUSH2 0x2FF JUMP JUMPDEST DUP2 EQ PUSH2 0x325 JUMPI PUSH1 0x0 DUP1 REVERT JUMPDEST POP JUMP JUMPDEST PUSH1 0x0 DUP2 CALLDATALOAD SWAP1 POP PUSH2 0x337 DUP2 PUSH2 0x311 JUMP JUMPDEST SWAP3 SWAP2 POP POP JUMP JUMPDEST PUSH1 0x0 PUSH1 0x20 DUP3 DUP5 SUB SLT ISZERO PUSH2 0x353 JUMPI PUSH2 0x352 PUSH2 0x2DA JUMP JUMPDEST JUMPDEST PUSH1 0x0 PUSH2 0x361 DUP5 DUP3 DUP6 ADD PUSH2 0x328 JUMP JUMPDEST SWAP2 POP POP SWAP3 SWAP2 POP POP JUMP JUMPDEST PUSH32 0x4E487B7100000000000000000000000000000000000000000000000000000000 PUSH1 0x0 MSTORE PUSH1 0x11 PUSH1 0x4 MSTORE PUSH1 0x24 PUSH1 0x0 REVERT JUMPDEST PUSH1 0x0 PUSH2 0x3A4 DUP3 PUSH2 0x2A6 JUMP JUMPDEST SWAP2 POP PUSH2 0x3AF DUP4 PUSH2 0x2A6 JUMP JUMPDEST SWAP3 POP DUP3 DUP3 ADD SWAP1 POP DUP1 DUP3 GT ISZERO PUSH2 0x3C7 JUMPI PUSH2 0x3C6 PUSH2 0x36A JUMP JUMPDEST JUMPDEST SWAP3 SWAP2 POP POP JUMP INVALID LOG2 PUSH5 0x6970667358 0x22 SLT KECCAK256 JUMP PUSH12 0x6771D4936502F64A8A05CB34 EXTCODESIZE 0x4C SWAP1 STOP SWAP16 0xE 0x1F 0xEA CHAINID 0xAD 0xDB 0xEF SWAP4 0x2E PUSH28 0x4674BF64736F6C634300081200330000000000000000000000000000 "
				},
				"gasEstimates": {
					"creation": {
						"codeDepositCost": "205400",
						"executionCost": "251",
						"totalCost": "205651"
					},
					"external": {
						"currentBal()": "2429",
						"deposit()": "infinite",
						"viewBalance()": "362",
						"withdraw()": "infinite",
						"withdrawAll()": "infinite",
						"withdrawAllToAddr(address)": "infinite",
						"withdrawToAddr(address)": "infinite"
					}
				},
				"methodIdentifiers": {
					"currentBal()": "6fc44344",
					"deposit()": "d0e30db0",
					"viewBalance()": "3ff1e05b",
					"withdraw()": "3ccfd60b",
					"withdrawAll()": "853828b6",
					"withdrawAllToAddr(address)": "852dbc14",
					"withdrawToAddr(address)": "49c1b44d"
				}
			},
			"storageLayout": {
				"storage": [
					{
						"astId": 3,
						"contract": "Labs/MoneyWallet.sol:MoneyWallet",
						"label": "currentBal",
						"offset": 0,
						"slot": "0",
						"type": "t_uint256"
					}
				],
				"types": {
					"t_uint256": {
						"encoding": "inplace",
						"label": "uint256",
						"numberOfBytes": "32"
					}
				}
			},
			"userdoc": {
				"kind": "user",
				"methods": {},
				"version": 1
			}
		}
	}
}